{
  "contractName": "supplychain",
  "abi": [
    {
      "anonymous": false,
      "inputs": [
        {
          "indexed": false,
          "internalType": "uint32",
          "name": "productId",
          "type": "uint32"
        }
      ],
      "name": "TransferOwnership",
      "type": "event"
    },
    {
      "inputs": [],
      "name": "owner_id",
      "outputs": [
        {
          "internalType": "uint32",
          "name": "",
          "type": "uint32"
        }
      ],
      "stateMutability": "view",
      "type": "function",
      "constant": true
    },
    {
      "inputs": [
        {
          "internalType": "uint32",
          "name": "",
          "type": "uint32"
        }
      ],
      "name": "ownerships",
      "outputs": [
        {
          "internalType": "uint32",
          "name": "productId",
          "type": "uint32"
        },
        {
          "internalType": "uint32",
          "name": "ownerId",
          "type": "uint32"
        },
        {
          "internalType": "uint32",
          "name": "trxTimeStamp",
          "type": "uint32"
        },
        {
          "internalType": "address",
          "name": "productOwner",
          "type": "address"
        }
      ],
      "stateMutability": "view",
      "type": "function",
      "constant": true
    },
    {
      "inputs": [],
      "name": "participant_id",
      "outputs": [
        {
          "internalType": "uint32",
          "name": "",
          "type": "uint32"
        }
      ],
      "stateMutability": "view",
      "type": "function",
      "constant": true
    },
    {
      "inputs": [
        {
          "internalType": "uint32",
          "name": "",
          "type": "uint32"
        }
      ],
      "name": "participants",
      "outputs": [
        {
          "internalType": "string",
          "name": "userName",
          "type": "string"
        },
        {
          "internalType": "string",
          "name": "password",
          "type": "string"
        },
        {
          "internalType": "string",
          "name": "participantType",
          "type": "string"
        },
        {
          "internalType": "address",
          "name": "participantAddress",
          "type": "address"
        }
      ],
      "stateMutability": "view",
      "type": "function",
      "constant": true
    },
    {
      "inputs": [
        {
          "internalType": "uint32",
          "name": "",
          "type": "uint32"
        },
        {
          "internalType": "uint256",
          "name": "",
          "type": "uint256"
        }
      ],
      "name": "productTrack",
      "outputs": [
        {
          "internalType": "uint32",
          "name": "",
          "type": "uint32"
        }
      ],
      "stateMutability": "view",
      "type": "function",
      "constant": true
    },
    {
      "inputs": [],
      "name": "product_id",
      "outputs": [
        {
          "internalType": "uint32",
          "name": "",
          "type": "uint32"
        }
      ],
      "stateMutability": "view",
      "type": "function",
      "constant": true
    },
    {
      "inputs": [
        {
          "internalType": "uint32",
          "name": "",
          "type": "uint32"
        }
      ],
      "name": "products",
      "outputs": [
        {
          "internalType": "string",
          "name": "modelNumber",
          "type": "string"
        },
        {
          "internalType": "string",
          "name": "partNumber",
          "type": "string"
        },
        {
          "internalType": "string",
          "name": "serialNumber",
          "type": "string"
        },
        {
          "internalType": "address",
          "name": "productOwner",
          "type": "address"
        },
        {
          "internalType": "uint32",
          "name": "cost",
          "type": "uint32"
        },
        {
          "internalType": "uint32",
          "name": "mfgTimeStamp",
          "type": "uint32"
        }
      ],
      "stateMutability": "view",
      "type": "function",
      "constant": true
    },
    {
      "inputs": [
        {
          "internalType": "string",
          "name": "_name",
          "type": "string"
        },
        {
          "internalType": "string",
          "name": "_pass",
          "type": "string"
        },
        {
          "internalType": "address",
          "name": "_pAdd",
          "type": "address"
        },
        {
          "internalType": "string",
          "name": "_pType",
          "type": "string"
        }
      ],
      "name": "addParticipant",
      "outputs": [
        {
          "internalType": "uint32",
          "name": "",
          "type": "uint32"
        }
      ],
      "stateMutability": "nonpayable",
      "type": "function"
    },
    {
      "inputs": [
        {
          "internalType": "uint32",
          "name": "_participant_id",
          "type": "uint32"
        }
      ],
      "name": "getParticipant",
      "outputs": [
        {
          "internalType": "string",
          "name": "",
          "type": "string"
        },
        {
          "internalType": "address",
          "name": "",
          "type": "address"
        },
        {
          "internalType": "string",
          "name": "",
          "type": "string"
        }
      ],
      "stateMutability": "view",
      "type": "function",
      "constant": true
    },
    {
      "inputs": [
        {
          "internalType": "uint32",
          "name": "_ownerId",
          "type": "uint32"
        },
        {
          "internalType": "string",
          "name": "_modelNumber",
          "type": "string"
        },
        {
          "internalType": "string",
          "name": "_partNumber",
          "type": "string"
        },
        {
          "internalType": "string",
          "name": "_serialNumber",
          "type": "string"
        },
        {
          "internalType": "uint32",
          "name": "_productCost",
          "type": "uint32"
        }
      ],
      "name": "addProduct",
      "outputs": [
        {
          "internalType": "uint32",
          "name": "",
          "type": "uint32"
        }
      ],
      "stateMutability": "nonpayable",
      "type": "function"
    },
    {
      "inputs": [
        {
          "internalType": "uint32",
          "name": "_productId",
          "type": "uint32"
        }
      ],
      "name": "getProduct",
      "outputs": [
        {
          "internalType": "string",
          "name": "",
          "type": "string"
        },
        {
          "internalType": "string",
          "name": "",
          "type": "string"
        },
        {
          "internalType": "string",
          "name": "",
          "type": "string"
        },
        {
          "internalType": "uint32",
          "name": "",
          "type": "uint32"
        },
        {
          "internalType": "address",
          "name": "",
          "type": "address"
        },
        {
          "internalType": "uint32",
          "name": "",
          "type": "uint32"
        }
      ],
      "stateMutability": "view",
      "type": "function",
      "constant": true
    },
    {
      "inputs": [
        {
          "internalType": "uint32",
          "name": "_user1Id",
          "type": "uint32"
        },
        {
          "internalType": "uint32",
          "name": "_user2Id",
          "type": "uint32"
        },
        {
          "internalType": "uint32",
          "name": "_prodId",
          "type": "uint32"
        }
      ],
      "name": "newOwner",
      "outputs": [
        {
          "internalType": "bool",
          "name": "",
          "type": "bool"
        }
      ],
      "stateMutability": "nonpayable",
      "type": "function"
    },
    {
      "inputs": [
        {
          "internalType": "uint32",
          "name": "_prodId",
          "type": "uint32"
        }
      ],
      "name": "getProvenance",
      "outputs": [
        {
          "internalType": "uint32[]",
          "name": "",
          "type": "uint32[]"
        }
      ],
      "stateMutability": "view",
      "type": "function",
      "constant": true
    },
    {
      "inputs": [
        {
          "internalType": "uint32",
          "name": "_regId",
          "type": "uint32"
        }
      ],
      "name": "getOwnership",
      "outputs": [
        {
          "internalType": "uint32",
          "name": "",
          "type": "uint32"
        },
        {
          "internalType": "uint32",
          "name": "",
          "type": "uint32"
        },
        {
          "internalType": "address",
          "name": "",
          "type": "address"
        },
        {
          "internalType": "uint32",
          "name": "",
          "type": "uint32"
        }
      ],
      "stateMutability": "view",
      "type": "function",
      "constant": true
    },
    {
      "inputs": [
        {
          "internalType": "uint32",
          "name": "_uid",
          "type": "uint32"
        },
        {
          "internalType": "string",
          "name": "_uname",
          "type": "string"
        },
        {
          "internalType": "string",
          "name": "_pass",
          "type": "string"
        },
        {
          "internalType": "string",
          "name": "_utype",
          "type": "string"
        }
      ],
      "name": "authenticateParticipant",
      "outputs": [
        {
          "internalType": "bool",
          "name": "",
          "type": "bool"
        }
      ],
      "stateMutability": "view",
      "type": "function",
      "constant": true
    }
  ],
  "bytecode": "0x608060405260008060006101000a81548163ffffffff021916908363ffffffff16021790555060008060046101000a81548163ffffffff021916908363ffffffff16021790555060008060086101000a81548163ffffffff021916908363ffffffff16021790555034801561007357600080fd5b5061333a806100836000396000f3fe608060405234801561001057600080fd5b50600436106100f55760003560e01c80638f5ebf7111610097578063df6d23f111610066578063df6d23f11461030a578063eab0a4791461033d578063ebf43a7e1461035b578063fc2da9101461038b576100f5565b80638f5ebf7114610252578063a638ac4914610270578063bf712fd6146102a5578063c8569565146102da576100f5565b806350632104116100d3578063506321041461018c578063721b5743146101bc5780637d0a9ac9146101ec57806381e156101461021f576100f5565b80631a074802146100fa5780632e9d52841461012a5780633b26a65d1461015a575b600080fd5b610114600480360381019061010f91906128b4565b6103a9565b6040516101219190612903565b60405180910390f35b610144600480360381019061013f919061291e565b6103f2565b604051610151919061298c565b60405180910390f35b610174600480360381019061016f91906129a7565b611723565b60405161018393929190612aae565b60405180910390f35b6101a660048036038101906101a19190612c28565b6118d5565b6040516101b39190612903565b60405180910390f35b6101d660048036038101906101d19190612cf7565b611b6a565b6040516101e3919061298c565b60405180910390f35b610206600480360381019061020191906129a7565b611ce3565b6040516102169493929190612db2565b60405180910390f35b610239600480360381019061023491906129a7565b611ecb565b6040516102499493929190612e0c565b60405180910390f35b61025a611f4b565b6040516102679190612903565b60405180910390f35b61028a600480360381019061028591906129a7565b611f61565b60405161029c96959493929190612e51565b60405180910390f35b6102bf60048036038101906102ba91906129a7565b612233565b6040516102d196959493929190612ec7565b60405180910390f35b6102f460048036038101906102ef91906129a7565b612447565b6040516103019190612ffb565b60405180910390f35b610324600480360381019061031f91906129a7565b6124ea565b604051610334949392919061301d565b60405180910390f35b61034561260a565b6040516103529190612903565b60405180910390f35b6103756004803603810190610370919061308e565b61261e565b6040516103829190612903565b60405180910390f35b610393612775565b6040516103a09190612903565b60405180910390f35b600460205281600052604060002081815481106103c557600080fd5b9060005260206000209060089182820401919006600402915091509054906101000a900463ffffffff1681565b600080600260008663ffffffff1663ffffffff16815260200190815260200160002060405180608001604052908160008201805461042f90613178565b80601f016020809104026020016040519081016040528092919081815260200182805461045b90613178565b80156104a85780601f1061047d576101008083540402835291602001916104a8565b820191906000526020600020905b81548152906001019060200180831161048b57829003601f168201915b505050505081526020016001820180546104c190613178565b80601f01602080910402602001604051908101604052809291908181526020018280546104ed90613178565b801561053a5780601f1061050f5761010080835404028352916020019161053a565b820191906000526020600020905b81548152906001019060200180831161051d57829003601f168201915b5050505050815260200160028201805461055390613178565b80601f016020809104026020016040519081016040528092919081815260200182805461057f90613178565b80156105cc5780601f106105a1576101008083540402835291602001916105cc565b820191906000526020600020905b8154815290600101906020018083116105af57829003601f168201915b505050505081526020016003820160009054906101000a900473ffffffffffffffffffffffffffffffffffffffff1673ffffffffffffffffffffffffffffffffffffffff1673ffffffffffffffffffffffffffffffffffffffff168152505090506000600260008663ffffffff1663ffffffff16815260200190815260200160002060405180608001604052908160008201805461066990613178565b80601f016020809104026020016040519081016040528092919081815260200182805461069590613178565b80156106e25780601f106106b7576101008083540402835291602001916106e2565b820191906000526020600020905b8154815290600101906020018083116106c557829003601f168201915b505050505081526020016001820180546106fb90613178565b80601f016020809104026020016040519081016040528092919081815260200182805461072790613178565b80156107745780601f1061074957610100808354040283529160200191610774565b820191906000526020600020905b81548152906001019060200180831161075757829003601f168201915b5050505050815260200160028201805461078d90613178565b80601f01602080910402602001604051908101604052809291908181526020018280546107b990613178565b80156108065780601f106107db57610100808354040283529160200191610806565b820191906000526020600020905b8154815290600101906020018083116107e957829003601f168201915b505050505081526020016003820160009054906101000a900473ffffffffffffffffffffffffffffffffffffffff1673ffffffffffffffffffffffffffffffffffffffff1673ffffffffffffffffffffffffffffffffffffffff16815250509050600080600881819054906101000a900463ffffffff168092919061088a906131d9565b91906101000a81548163ffffffff021916908363ffffffff16021790555090507f40aacf3f01773fa2e5761d60d6e40d96b3d628791eaf8d5df56fd4abfb5dd7f683604001516040516020016108e09190613242565b6040516020818303038152906040528051906020012014801561094c57507f65a46dd2751d258a2d78bedcfeba764de13598ddab8599641ff9ea193dc72a6f82604001516040516020016109349190613242565b60405160208183030381529060405280519060200120145b15610b8c5784600360008363ffffffff1663ffffffff16815260200190815260200160002060000160006101000a81548163ffffffff021916908363ffffffff1602179055508160600151600360008363ffffffff1663ffffffff168152602001908152602001600020600001600c6101000a81548173ffffffffffffffffffffffffffffffffffffffff021916908373ffffffffffffffffffffffffffffffffffffffff16021790555085600360008363ffffffff1663ffffffff16815260200190815260200160002060000160046101000a81548163ffffffff021916908363ffffffff16021790555042600360008363ffffffff1663ffffffff16815260200190815260200160002060000160086101000a81548163ffffffff021916908363ffffffff1602179055508160600151600160008763ffffffff1663ffffffff16815260200190815260200160002060030160006101000a81548173ffffffffffffffffffffffffffffffffffffffff021916908373ffffffffffffffffffffffffffffffffffffffff160217905550600460008663ffffffff1663ffffffff1681526020019081526020016000208190806001815401808255809150506001900390600052602060002090600891828204019190066004029091909190916101000a81548163ffffffff021916908363ffffffff1602179055507fa5470ac012c6e9dc500e62b1d3de0de58db49b3ab7cfebbfb126d9abd854199b85604051610b789190612903565b60405180910390a16001935050505061171c565b7f65a46dd2751d258a2d78bedcfeba764de13598ddab8599641ff9ea193dc72a6f8360400151604051602001610bc29190613242565b60405160208183030381529060405280519060200120148015610c2e57507f94b36e17616a0cc1b2331c95f6d7465ac98daa13f0839675c6dcf8e280a166e18260400151604051602001610c169190613242565b60405160208183030381529060405280519060200120145b15610e6e5784600360008363ffffffff1663ffffffff16815260200190815260200160002060000160006101000a81548163ffffffff021916908363ffffffff1602179055508160600151600360008363ffffffff1663ffffffff168152602001908152602001600020600001600c6101000a81548173ffffffffffffffffffffffffffffffffffffffff021916908373ffffffffffffffffffffffffffffffffffffffff16021790555085600360008363ffffffff1663ffffffff16815260200190815260200160002060000160046101000a81548163ffffffff021916908363ffffffff16021790555042600360008363ffffffff1663ffffffff16815260200190815260200160002060000160086101000a81548163ffffffff021916908363ffffffff1602179055508160600151600160008763ffffffff1663ffffffff16815260200190815260200160002060030160006101000a81548173ffffffffffffffffffffffffffffffffffffffff021916908373ffffffffffffffffffffffffffffffffffffffff160217905550600460008663ffffffff1663ffffffff1681526020019081526020016000208190806001815401808255809150506001900390600052602060002090600891828204019190066004029091909190916101000a81548163ffffffff021916908363ffffffff1602179055507fa5470ac012c6e9dc500e62b1d3de0de58db49b3ab7cfebbfb126d9abd854199b85604051610e5a9190612903565b60405180910390a16001935050505061171c565b7f94b36e17616a0cc1b2331c95f6d7465ac98daa13f0839675c6dcf8e280a166e18360400151604051602001610ea49190613242565b60405160208183030381529060405280519060200120148015610f1057507fe36f1f225425b70725c4d7043ec470d9d24c4c374e9868fa65ba4a8369f8fc038260400151604051602001610ef89190613242565b60405160208183030381529060405280519060200120145b156111505784600360008363ffffffff1663ffffffff16815260200190815260200160002060000160006101000a81548163ffffffff021916908363ffffffff1602179055508160600151600360008363ffffffff1663ffffffff168152602001908152602001600020600001600c6101000a81548173ffffffffffffffffffffffffffffffffffffffff021916908373ffffffffffffffffffffffffffffffffffffffff16021790555085600360008363ffffffff1663ffffffff16815260200190815260200160002060000160046101000a81548163ffffffff021916908363ffffffff16021790555042600360008363ffffffff1663ffffffff16815260200190815260200160002060000160086101000a81548163ffffffff021916908363ffffffff1602179055508160600151600160008763ffffffff1663ffffffff16815260200190815260200160002060030160006101000a81548173ffffffffffffffffffffffffffffffffffffffff021916908373ffffffffffffffffffffffffffffffffffffffff160217905550600460008663ffffffff1663ffffffff1681526020019081526020016000208190806001815401808255809150506001900390600052602060002090600891828204019190066004029091909190916101000a81548163ffffffff021916908363ffffffff1602179055507fa5470ac012c6e9dc500e62b1d3de0de58db49b3ab7cfebbfb126d9abd854199b8560405161113c9190612903565b60405180910390a16001935050505061171c565b7fe36f1f225425b70725c4d7043ec470d9d24c4c374e9868fa65ba4a8369f8fc0383604001516040516020016111869190613242565b604051602081830303815290604052805190602001201480156111f257507faac53439bd8bd079432ddf9a77f0bf60ed770eb955a5cfe446a47d91abb8948282604001516040516020016111da9190613242565b60405160208183030381529060405280519060200120145b156114325784600360008363ffffffff1663ffffffff16815260200190815260200160002060000160006101000a81548163ffffffff021916908363ffffffff1602179055508160600151600360008363ffffffff1663ffffffff168152602001908152602001600020600001600c6101000a81548173ffffffffffffffffffffffffffffffffffffffff021916908373ffffffffffffffffffffffffffffffffffffffff16021790555085600360008363ffffffff1663ffffffff16815260200190815260200160002060000160046101000a81548163ffffffff021916908363ffffffff16021790555042600360008363ffffffff1663ffffffff16815260200190815260200160002060000160086101000a81548163ffffffff021916908363ffffffff1602179055508160600151600160008763ffffffff1663ffffffff16815260200190815260200160002060030160006101000a81548173ffffffffffffffffffffffffffffffffffffffff021916908373ffffffffffffffffffffffffffffffffffffffff160217905550600460008663ffffffff1663ffffffff1681526020019081526020016000208190806001815401808255809150506001900390600052602060002090600891828204019190066004029091909190916101000a81548163ffffffff021916908363ffffffff1602179055507fa5470ac012c6e9dc500e62b1d3de0de58db49b3ab7cfebbfb126d9abd854199b8560405161141e9190612903565b60405180910390a16001935050505061171c565b7faac53439bd8bd079432ddf9a77f0bf60ed770eb955a5cfe446a47d91abb8948283604001516040516020016114689190613242565b604051602081830303815290604052805190602001201480156114d457507fb2ebd6afe8ba024614156b3c81d408e68cbe372754a5503c8b7f07bbace9f6ba82604001516040516020016114bc9190613242565b60405160208183030381529060405280519060200120145b156117145784600360008363ffffffff1663ffffffff16815260200190815260200160002060000160006101000a81548163ffffffff021916908363ffffffff1602179055508160600151600360008363ffffffff1663ffffffff168152602001908152602001600020600001600c6101000a81548173ffffffffffffffffffffffffffffffffffffffff021916908373ffffffffffffffffffffffffffffffffffffffff16021790555085600360008363ffffffff1663ffffffff16815260200190815260200160002060000160046101000a81548163ffffffff021916908363ffffffff16021790555042600360008363ffffffff1663ffffffff16815260200190815260200160002060000160086101000a81548163ffffffff021916908363ffffffff1602179055508160600151600160008763ffffffff1663ffffffff16815260200190815260200160002060030160006101000a81548173ffffffffffffffffffffffffffffffffffffffff021916908373ffffffffffffffffffffffffffffffffffffffff160217905550600460008663ffffffff1663ffffffff1681526020019081526020016000208190806001815401808255809150506001900390600052602060002090600891828204019190066004029091909190916101000a81548163ffffffff021916908363ffffffff1602179055507fa5470ac012c6e9dc500e62b1d3de0de58db49b3ab7cfebbfb126d9abd854199b856040516117009190612903565b60405180910390a16001935050505061171c565b600093505050505b9392505050565b606060006060600260008563ffffffff1663ffffffff168152602001908152602001600020600001600260008663ffffffff1663ffffffff16815260200190815260200160002060030160009054906101000a900473ffffffffffffffffffffffffffffffffffffffff16600260008763ffffffff1663ffffffff1681526020019081526020016000206002018280546117bc90613178565b80601f01602080910402602001604051908101604052809291908181526020018280546117e890613178565b80156118355780601f1061180a57610100808354040283529160200191611835565b820191906000526020600020905b81548152906001019060200180831161181857829003601f168201915b5050505050925080805461184890613178565b80601f016020809104026020016040519081016040528092919081815260200182805461187490613178565b80156118c15780601f10611896576101008083540402835291602001916118c1565b820191906000526020600020905b8154815290600101906020018083116118a457829003601f168201915b505050505090509250925092509193909250565b60007fb77c7d6bf62fa24fc205955093030c58325cd2d3d35fb486ede7594fb99635f5600260008863ffffffff1663ffffffff16815260200190815260200160002060020160405160200161192a91906132ed565b604051602081830303815290604052805190602001201415611b5c57600080600081819054906101000a900463ffffffff1680929190611969906131d9565b91906101000a81548163ffffffff021916908363ffffffff160217905550905085600160008363ffffffff1663ffffffff16815260200190815260200160002060000190805190602001906119bf92919061278b565b5084600160008363ffffffff1663ffffffff16815260200190815260200160002060010190805190602001906119f692919061278b565b5083600160008363ffffffff1663ffffffff1681526020019081526020016000206002019080519060200190611a2d92919061278b565b5082600160008363ffffffff1663ffffffff16815260200190815260200160002060030160146101000a81548163ffffffff021916908363ffffffff160217905550600260008863ffffffff1663ffffffff16815260200190815260200160002060030160009054906101000a900473ffffffffffffffffffffffffffffffffffffffff16600160008363ffffffff1663ffffffff16815260200190815260200160002060030160006101000a81548173ffffffffffffffffffffffffffffffffffffffff021916908373ffffffffffffffffffffffffffffffffffffffff16021790555042600160008363ffffffff1663ffffffff16815260200190815260200160002060030160186101000a81548163ffffffff021916908363ffffffff16021790555080915050611b61565b600090505b95945050505050565b600081604051602001611b7d9190613242565b60405160208183030381529060405280519060200120600260008763ffffffff1663ffffffff168152602001908152602001600020600201604051602001611bc591906132ed565b604051602081830303815290604052805190602001201415611cd65783604051602001611bf29190613242565b60405160208183030381529060405280519060200120600260008763ffffffff1663ffffffff168152602001908152602001600020600001604051602001611c3a91906132ed565b604051602081830303815290604052805190602001201415611cd55782604051602001611c679190613242565b60405160208183030381529060405280519060200120600260008763ffffffff1663ffffffff168152602001908152602001600020600101604051602001611caf91906132ed565b604051602081830303815290604052805190602001201415611cd45760019050611cdb565b5b5b600090505b949350505050565b6002602052806000526040600020600091509050806000018054611d0690613178565b80601f0160208091040260200160405190810160405280929190818152602001828054611d3290613178565b8015611d7f5780601f10611d5457610100808354040283529160200191611d7f565b820191906000526020600020905b815481529060010190602001808311611d6257829003601f168201915b505050505090806001018054611d9490613178565b80601f0160208091040260200160405190810160405280929190818152602001828054611dc090613178565b8015611e0d5780601f10611de257610100808354040283529160200191611e0d565b820191906000526020600020905b815481529060010190602001808311611df057829003601f168201915b505050505090806002018054611e2290613178565b80601f0160208091040260200160405190810160405280929190818152602001828054611e4e90613178565b8015611e9b5780601f10611e7057610100808354040283529160200191611e9b565b820191906000526020600020905b815481529060010190602001808311611e7e57829003601f168201915b5050505050908060030160009054906101000a900473ffffffffffffffffffffffffffffffffffffffff16905084565b60036020528060005260406000206000915090508060000160009054906101000a900463ffffffff16908060000160049054906101000a900463ffffffff16908060000160089054906101000a900463ffffffff169080600001600c9054906101000a900473ffffffffffffffffffffffffffffffffffffffff16905084565b600060089054906101000a900463ffffffff1681565b60608060606000806000600160008863ffffffff1663ffffffff168152602001908152602001600020600001600160008963ffffffff1663ffffffff168152602001908152602001600020600101600160008a63ffffffff1663ffffffff168152602001908152602001600020600201600160008b63ffffffff1663ffffffff16815260200190815260200160002060030160149054906101000a900463ffffffff16600160008c63ffffffff1663ffffffff16815260200190815260200160002060030160009054906101000a900473ffffffffffffffffffffffffffffffffffffffff16600160008d63ffffffff1663ffffffff16815260200190815260200160002060030160189054906101000a900463ffffffff1685805461208690613178565b80601f01602080910402602001604051908101604052809291908181526020018280546120b290613178565b80156120ff5780601f106120d4576101008083540402835291602001916120ff565b820191906000526020600020905b8154815290600101906020018083116120e257829003601f168201915b5050505050955084805461211290613178565b80601f016020809104026020016040519081016040528092919081815260200182805461213e90613178565b801561218b5780601f106121605761010080835404028352916020019161218b565b820191906000526020600020905b81548152906001019060200180831161216e57829003601f168201915b5050505050945083805461219e90613178565b80601f01602080910402602001604051908101604052809291908181526020018280546121ca90613178565b80156122175780601f106121ec57610100808354040283529160200191612217565b820191906000526020600020905b8154815290600101906020018083116121fa57829003601f168201915b5050505050935095509550955095509550955091939550919395565b600160205280600052604060002060009150905080600001805461225690613178565b80601f016020809104026020016040519081016040528092919081815260200182805461228290613178565b80156122cf5780601f106122a4576101008083540402835291602001916122cf565b820191906000526020600020905b8154815290600101906020018083116122b257829003601f168201915b5050505050908060010180546122e490613178565b80601f016020809104026020016040519081016040528092919081815260200182805461231090613178565b801561235d5780601f106123325761010080835404028352916020019161235d565b820191906000526020600020905b81548152906001019060200180831161234057829003601f168201915b50505050509080600201805461237290613178565b80601f016020809104026020016040519081016040528092919081815260200182805461239e90613178565b80156123eb5780601f106123c0576101008083540402835291602001916123eb565b820191906000526020600020905b8154815290600101906020018083116123ce57829003601f168201915b5050505050908060030160009054906101000a900473ffffffffffffffffffffffffffffffffffffffff16908060030160149054906101000a900463ffffffff16908060030160189054906101000a900463ffffffff16905086565b6060600460008363ffffffff1663ffffffff1681526020019081526020016000208054806020026020016040519081016040528092919081815260200182805480156124de57602002820191906000526020600020906000905b82829054906101000a900463ffffffff1663ffffffff16815260200190600401906020826003010492830192600103820291508084116124a15790505b50505050509050919050565b6000806000806000600360008763ffffffff1663ffffffff1681526020019081526020016000206040518060800160405290816000820160009054906101000a900463ffffffff1663ffffffff1663ffffffff1681526020016000820160049054906101000a900463ffffffff1663ffffffff1663ffffffff1681526020016000820160089054906101000a900463ffffffff1663ffffffff1663ffffffff16815260200160008201600c9054906101000a900473ffffffffffffffffffffffffffffffffffffffff1673ffffffffffffffffffffffffffffffffffffffff1673ffffffffffffffffffffffffffffffffffffffff1681525050905080600001518160200151826060015183604001519450945094509450509193509193565b60008054906101000a900463ffffffff1681565b6000806000600481819054906101000a900463ffffffff1680929190612643906131d9565b91906101000a81548163ffffffff021916908363ffffffff160217905550905085600260008363ffffffff1663ffffffff168152602001908152602001600020600001908051906020019061269992919061278b565b5084600260008363ffffffff1663ffffffff16815260200190815260200160002060010190805190602001906126d092919061278b565b5083600260008363ffffffff1663ffffffff16815260200190815260200160002060030160006101000a81548173ffffffffffffffffffffffffffffffffffffffff021916908373ffffffffffffffffffffffffffffffffffffffff16021790555082600260008363ffffffff1663ffffffff168152602001908152602001600020600201908051906020019061276892919061278b565b5080915050949350505050565b600060049054906101000a900463ffffffff1681565b82805461279790613178565b90600052602060002090601f0160209004810192826127b95760008555612800565b82601f106127d257805160ff1916838001178555612800565b82800160010185558215612800579182015b828111156127ff5782518255916020019190600101906127e4565b5b50905061280d9190612811565b5090565b5b8082111561282a576000816000905550600101612812565b5090565b6000604051905090565b600080fd5b600080fd5b600063ffffffff82169050919050565b61285b81612842565b811461286657600080fd5b50565b60008135905061287881612852565b92915050565b6000819050919050565b6128918161287e565b811461289c57600080fd5b50565b6000813590506128ae81612888565b92915050565b600080604083850312156128cb576128ca612838565b5b60006128d985828601612869565b92505060206128ea8582860161289f565b9150509250929050565b6128fd81612842565b82525050565b600060208201905061291860008301846128f4565b92915050565b60008060006060848603121561293757612936612838565b5b600061294586828701612869565b935050602061295686828701612869565b925050604061296786828701612869565b9150509250925092565b60008115159050919050565b61298681612971565b82525050565b60006020820190506129a1600083018461297d565b92915050565b6000602082840312156129bd576129bc612838565b5b60006129cb84828501612869565b91505092915050565b600081519050919050565b600082825260208201905092915050565b60005b83811015612a0e5780820151818401526020810190506129f3565b83811115612a1d576000848401525b50505050565b6000601f19601f8301169050919050565b6000612a3f826129d4565b612a4981856129df565b9350612a598185602086016129f0565b612a6281612a23565b840191505092915050565b600073ffffffffffffffffffffffffffffffffffffffff82169050919050565b6000612a9882612a6d565b9050919050565b612aa881612a8d565b82525050565b60006060820190508181036000830152612ac88186612a34565b9050612ad76020830185612a9f565b8181036040830152612ae98184612a34565b9050949350505050565b600080fd5b600080fd5b7f4e487b7100000000000000000000000000000000000000000000000000000000600052604160045260246000fd5b612b3582612a23565b810181811067ffffffffffffffff82111715612b5457612b53612afd565b5b80604052505050565b6000612b6761282e565b9050612b738282612b2c565b919050565b600067ffffffffffffffff821115612b9357612b92612afd565b5b612b9c82612a23565b9050602081019050919050565b82818337600083830152505050565b6000612bcb612bc684612b78565b612b5d565b905082815260208101848484011115612be757612be6612af8565b5b612bf2848285612ba9565b509392505050565b600082601f830112612c0f57612c0e612af3565b5b8135612c1f848260208601612bb8565b91505092915050565b600080600080600060a08688031215612c4457612c43612838565b5b6000612c5288828901612869565b955050602086013567ffffffffffffffff811115612c7357612c7261283d565b5b612c7f88828901612bfa565b945050604086013567ffffffffffffffff811115612ca057612c9f61283d565b5b612cac88828901612bfa565b935050606086013567ffffffffffffffff811115612ccd57612ccc61283d565b5b612cd988828901612bfa565b9250506080612cea88828901612869565b9150509295509295909350565b60008060008060808587031215612d1157612d10612838565b5b6000612d1f87828801612869565b945050602085013567ffffffffffffffff811115612d4057612d3f61283d565b5b612d4c87828801612bfa565b935050604085013567ffffffffffffffff811115612d6d57612d6c61283d565b5b612d7987828801612bfa565b925050606085013567ffffffffffffffff811115612d9a57612d9961283d565b5b612da687828801612bfa565b91505092959194509250565b60006080820190508181036000830152612dcc8187612a34565b90508181036020830152612de08186612a34565b90508181036040830152612df48185612a34565b9050612e036060830184612a9f565b95945050505050565b6000608082019050612e2160008301876128f4565b612e2e60208301866128f4565b612e3b60408301856128f4565b612e486060830184612a9f565b95945050505050565b600060c0820190508181036000830152612e6b8189612a34565b90508181036020830152612e7f8188612a34565b90508181036040830152612e938187612a34565b9050612ea260608301866128f4565b612eaf6080830185612a9f565b612ebc60a08301846128f4565b979650505050505050565b600060c0820190508181036000830152612ee18189612a34565b90508181036020830152612ef58188612a34565b90508181036040830152612f098187612a34565b9050612f186060830186612a9f565b612f2560808301856128f4565b612f3260a08301846128f4565b979650505050505050565b600081519050919050565b600082825260208201905092915050565b6000819050602082019050919050565b612f7281612842565b82525050565b6000612f848383612f69565b60208301905092915050565b6000602082019050919050565b6000612fa882612f3d565b612fb28185612f48565b9350612fbd83612f59565b8060005b83811015612fee578151612fd58882612f78565b9750612fe083612f90565b925050600181019050612fc1565b5085935050505092915050565b600060208201905081810360008301526130158184612f9d565b905092915050565b600060808201905061303260008301876128f4565b61303f60208301866128f4565b61304c6040830185612a9f565b61305960608301846128f4565b95945050505050565b61306b81612a8d565b811461307657600080fd5b50565b60008135905061308881613062565b92915050565b600080600080608085870312156130a8576130a7612838565b5b600085013567ffffffffffffffff8111156130c6576130c561283d565b5b6130d287828801612bfa565b945050602085013567ffffffffffffffff8111156130f3576130f261283d565b5b6130ff87828801612bfa565b935050604061311087828801613079565b925050606085013567ffffffffffffffff8111156131315761313061283d565b5b61313d87828801612bfa565b91505092959194509250565b7f4e487b7100000000000000000000000000000000000000000000000000000000600052602260045260246000fd5b6000600282049050600182168061319057607f821691505b602082108114156131a4576131a3613149565b5b50919050565b7f4e487b7100000000000000000000000000000000000000000000000000000000600052601160045260246000fd5b60006131e482612842565b915063ffffffff8214156131fb576131fa6131aa565b5b600182019050919050565b600081905092915050565b600061321c826129d4565b6132268185613206565b93506132368185602086016129f0565b80840191505092915050565b600061324e8284613211565b915081905092915050565b60008190508160005260206000209050919050565b6000815461327b81613178565b6132858186613206565b945060018216600081146132a057600181146132b1576132e4565b60ff198316865281860193506132e4565b6132ba85613259565b60005b838110156132dc578154818901526001820191506020810190506132bd565b838801955050505b50505092915050565b60006132f9828461326e565b91508190509291505056fea26469706673582212204a275daabd5b0954d07df5cfff2ff1995c474d49ab7ab9acbb7d67fa7e3ee64064736f6c634300080b0033",
  "immutableReferences": {},
  "source": "// SPDX-License-Identifier: MIT\r\n\r\npragma solidity >=0.4.22 <0.9.0;\r\n\r\ncontract supplychain {\r\n    uint32 public product_id = 0; // Product ID\r\n    uint32 public participant_id = 0; // Participant ID\r\n    uint32 public owner_id = 0; // Ownership ID\r\n\r\n    event TransferOwnership(uint32 productId);\r\n\r\n    // Product Characteristics.\r\n    struct product {\r\n        string modelNumber;\r\n        string partNumber;\r\n        string serialNumber;\r\n        address productOwner;\r\n        uint32 cost;\r\n        uint32 mfgTimeStamp;\r\n    }\r\n    mapping(uint32 => product) public products;\r\n\r\n    // Participant Characteristic.\r\n    struct participant {\r\n        string userName;\r\n        string password;\r\n        string participantType;\r\n        address participantAddress;\r\n    }\r\n    mapping(uint32 => participant) public participants;\r\n\r\n    // Ownership Characteristics.\r\n    struct ownership {\r\n        uint32 productId;\r\n        uint32 ownerId;\r\n        uint32 trxTimeStamp;\r\n        address productOwner;\r\n    }\r\n    mapping(uint32 => ownership) public ownerships; // ownerships by ownership ID (owner_id)\r\n    mapping(uint32 => uint32[]) public productTrack; // ownerships by Product ID (product_id) / Movement track for a product\r\n\r\n    // Add Participant.\r\n    function addParticipant(\r\n        string memory _name,\r\n        string memory _pass,\r\n        address _pAdd,\r\n        string memory _pType\r\n    ) public returns (uint32) {\r\n        uint32 userId = participant_id++;\r\n        participants[userId].userName = _name;\r\n        participants[userId].password = _pass;\r\n        participants[userId].participantAddress = _pAdd;\r\n        participants[userId].participantType = _pType;\r\n\r\n        return userId;\r\n    }\r\n\r\n    function getParticipant(uint32 _participant_id)\r\n        public\r\n        view\r\n        returns (\r\n            string memory,\r\n            address,\r\n            string memory\r\n        )\r\n    {\r\n        return (\r\n            participants[_participant_id].userName,\r\n            participants[_participant_id].participantAddress,\r\n            participants[_participant_id].participantType\r\n        );\r\n    }\r\n\r\n    function addProduct(\r\n        uint32 _ownerId,\r\n        string memory _modelNumber,\r\n        string memory _partNumber,\r\n        string memory _serialNumber,\r\n        uint32 _productCost\r\n    ) public returns (uint32) {\r\n        if (\r\n            keccak256(\r\n                abi.encodePacked(participants[_ownerId].participantType)\r\n            ) == keccak256(\"Supplier\")\r\n        ) {\r\n            uint32 productId = product_id++;\r\n\r\n            products[productId].modelNumber = _modelNumber;\r\n            products[productId].partNumber = _partNumber;\r\n            products[productId].serialNumber = _serialNumber;\r\n            products[productId].cost = _productCost;\r\n            products[productId].productOwner = participants[_ownerId]\r\n                .participantAddress;\r\n            products[productId].mfgTimeStamp = uint32(block.timestamp);\r\n\r\n            return productId;\r\n        }\r\n\r\n        return 0;\r\n    }\r\n\r\n    function getProduct(uint32 _productId)\r\n        public\r\n        view\r\n        returns (\r\n            string memory,\r\n            string memory,\r\n            string memory,\r\n            uint32,\r\n            address,\r\n            uint32\r\n        )\r\n    {\r\n        return (\r\n            products[_productId].modelNumber,\r\n            products[_productId].partNumber,\r\n            products[_productId].serialNumber,\r\n            products[_productId].cost,\r\n            products[_productId].productOwner,\r\n            products[_productId].mfgTimeStamp\r\n        );\r\n    }\r\n\r\n    function newOwner(\r\n        uint32 _user1Id,\r\n        uint32 _user2Id,\r\n        uint32 _prodId\r\n    ) public returns (bool) {\r\n        participant memory p1 = participants[_user1Id];\r\n        participant memory p2 = participants[_user2Id];\r\n        uint32 ownership_id = owner_id++;\r\n\r\n        if (\r\n            keccak256(abi.encodePacked(p1.participantType)) ==\r\n            keccak256(\"Materials-Supplier\") &&\r\n            keccak256(abi.encodePacked(p2.participantType)) ==\r\n            keccak256(\"Company-Manufacturer\")\r\n        ) {\r\n            ownerships[ownership_id].productId = _prodId;\r\n            ownerships[ownership_id].productOwner = p2.participantAddress;\r\n            ownerships[ownership_id].ownerId = _user2Id;\r\n            ownerships[ownership_id].trxTimeStamp = uint32(block.timestamp);\r\n            products[_prodId].productOwner = p2.participantAddress;\r\n            productTrack[_prodId].push(ownership_id);\r\n            emit TransferOwnership(_prodId);\r\n\r\n            return (true);\r\n        } else if (\r\n            keccak256(abi.encodePacked(p1.participantType)) ==\r\n            keccak256(\"Company-Manufacturer\") &&\r\n            keccak256(abi.encodePacked(p2.participantType)) ==\r\n            keccak256(\"Quality Assurance\")\r\n        ) {\r\n            ownerships[ownership_id].productId = _prodId;\r\n            ownerships[ownership_id].productOwner = p2.participantAddress;\r\n            ownerships[ownership_id].ownerId = _user2Id;\r\n            ownerships[ownership_id].trxTimeStamp = uint32(block.timestamp);\r\n            products[_prodId].productOwner = p2.participantAddress;\r\n            productTrack[_prodId].push(ownership_id);\r\n            emit TransferOwnership(_prodId);\r\n\r\n            return (true);\r\n        } else if (\r\n            keccak256(abi.encodePacked(p1.participantType)) ==\r\n            keccak256(\"Quality Assurance\") &&\r\n            keccak256(abi.encodePacked(p2.participantType)) ==\r\n            keccak256(\"Shipping-Warehouse\")\r\n        ) {\r\n            ownerships[ownership_id].productId = _prodId;\r\n            ownerships[ownership_id].productOwner = p2.participantAddress;\r\n            ownerships[ownership_id].ownerId = _user2Id;\r\n            ownerships[ownership_id].trxTimeStamp = uint32(block.timestamp);\r\n            products[_prodId].productOwner = p2.participantAddress;\r\n            productTrack[_prodId].push(ownership_id);\r\n            emit TransferOwnership(_prodId);\r\n\r\n            return (true);\r\n        } else if (\r\n            keccak256(abi.encodePacked(p1.participantType)) ==\r\n            keccak256(\"Shipping-Warehouse\") &&\r\n            keccak256(abi.encodePacked(p2.participantType)) ==\r\n            keccak256(\"Warehouse\")\r\n        ) {\r\n            ownerships[ownership_id].productId = _prodId;\r\n            ownerships[ownership_id].productOwner = p2.participantAddress;\r\n            ownerships[ownership_id].ownerId = _user2Id;\r\n            ownerships[ownership_id].trxTimeStamp = uint32(block.timestamp);\r\n            products[_prodId].productOwner = p2.participantAddress;\r\n            productTrack[_prodId].push(ownership_id);\r\n            emit TransferOwnership(_prodId);\r\n\r\n            return (true);\r\n        } else if (\r\n            keccak256(abi.encodePacked(p1.participantType)) ==\r\n            keccak256(\"Warehouse\") &&\r\n            keccak256(abi.encodePacked(p2.participantType)) ==\r\n            keccak256(\"Customer\")\r\n        ) {\r\n            ownerships[ownership_id].productId = _prodId;\r\n            ownerships[ownership_id].productOwner = p2.participantAddress;\r\n            ownerships[ownership_id].ownerId = _user2Id;\r\n            ownerships[ownership_id].trxTimeStamp = uint32(block.timestamp);\r\n            products[_prodId].productOwner = p2.participantAddress;\r\n            productTrack[_prodId].push(ownership_id);\r\n            emit TransferOwnership(_prodId);\r\n\r\n            return (true);\r\n        }\r\n\r\n        return (false);\r\n    }\r\n\r\n    function getProvenance(uint32 _prodId)\r\n        external\r\n        view\r\n        returns (uint32[] memory)\r\n    {\r\n        return productTrack[_prodId];\r\n    }\r\n\r\n    function getOwnership(uint32 _regId)\r\n        public\r\n        view\r\n        returns (\r\n            uint32,\r\n            uint32,\r\n            address,\r\n            uint32\r\n        )\r\n    {\r\n        ownership memory r = ownerships[_regId];\r\n\r\n        return (r.productId, r.ownerId, r.productOwner, r.trxTimeStamp);\r\n    }\r\n\r\n    function authenticateParticipant(\r\n        uint32 _uid,\r\n        string memory _uname,\r\n        string memory _pass,\r\n        string memory _utype\r\n    ) public view returns (bool) {\r\n        if (\r\n            keccak256(abi.encodePacked(participants[_uid].participantType)) ==\r\n            keccak256(abi.encodePacked(_utype))\r\n        ) {\r\n            if (\r\n                keccak256(abi.encodePacked(participants[_uid].userName)) ==\r\n                keccak256(abi.encodePacked(_uname))\r\n            ) {\r\n                if (\r\n                    keccak256(abi.encodePacked(participants[_uid].password)) ==\r\n                    keccak256(abi.encodePacked(_pass))\r\n                ) {\r\n                    return (true);\r\n                }\r\n            }\r\n        }\r\n\r\n        return (false);\r\n    }\r\n}\r\n",
  "sourcePath": "C:\\Users\\trish\\OneDrive\\Desktop\\Blockchain Dvep\\SupplyChaindAPP\\contracts\\supplychain.sol",
  "compiler": {
    "name": "solc",
    "version": "0.8.11+commit.d7f03943.Emscripten.clang"
  },
  "schemaVersion": "3.4.4",
  "updatedAt": "2022-01-18T17:42:33.430Z",
  "networkType": "ethereum",
  "devdoc": {
    "kind": "dev",
    "methods": {},
    "version": 1
  },
  "userdoc": {
    "kind": "user",
    "methods": {},
    "version": 1
  }
}